:020000041000EA
:10100000500500201D100010000000009D10001071
:101010000018040000010000000000801149124A7D
:10102000124B00F018F8124880471249124A134B2D
:1010300000F011F81249134A134B00F00CF8134951
:10104000134A0020521A02DD043A8850FCDC114891
:101050008047114880479B1A03DD043BC858D05095
:10106000FBDC7047643300100C00002050010020AE
:101070001D110010A8340010500500206806002043
:10108000C0350010680600206806002068060020B1
:10109000580800207D30001075300010FEE7000079
:1010A00000487047002D3101F8B5164F164E3B68C9
:1010B000164C1B041B0E33601AD003223868F969E2
:1010C000C0B20A401202124D02432A60F969890532
:1010D00003D49B0299180F4806E0FFF7E1FF31683F
:1010E0002B6889028001C91800F080FB000107E02D
:1010F000FB699B0502D4084B236002E0FFF7D0FF99
:101100002060F8BD000301406C060020FC3F002079
:101110006806002000001BB7006CDC0208B501F077
:10112000BBF801F0C9F808BDF7B503250C1C2C402D
:10113000AC400194FC24019E8B08B4409B00C31872
:101140001F690426A7431F614F00BD40446FAC4395
:1011500007250D40AD00AE404467CC08A40004193B
:10116000276CB74327645678276CAE40351C3D4347
:1011700025640A4CA04204D101258D40046EAC4385
:101180000466147865B2002D02DA52688A40426023
:1011900001991A698C4014431C61F7BD0002044098
:1011A000C022034B5A625A6A5207FCD47047C046A9
:1011B0000000014010B5041CFFF7F2FF054B186951
:1011C000204318611A685200FCD4C322024B5A62B1
:1011D00010BDC0460003014000000140034B9B6866
:1011E0001840431E9841C0B27047C04600030140FA
:1011F000F8B50D1C0326041CFFF7D2FF224B280A6A
:101200001A68D969EDB2B1430143D96118681F4921
:10121000120401401E48120E01430D431D6019685F
:101220004900FCD41B4DA600A2421AD89100A1424D
:101230000DD2002A00D101321968920029400143E1
:1012400016023143196019684900FCD4EEE71A68A8
:1012500024022A401043204318600CE0196849001A
:10126000FCD4B242F3D9196892082940014317020D
:1012700039431960F2E71A685200FCD4C322064BC6
:101280005A62FFF711FFF8BD0003014000FF0FC0D5
:101290000000F03FFF000FC00000014038B5041C03
:1012A000FFF77EFFA2792C4D302A2FD0FFF7F8FEF2
:1012B0002A4B984203D940222B8813432B80322299
:1012C0002B889343A27913432B8002232449254A78
:1012D0008B62254B58690240181C5A61234A013A17
:1012E000002A01D0C046FAE7C0255A69AD042A4356
:1012F0005A614369DB01FCD41D4B013B002B01D03B
:10130000C046FAE70B6A9B07DFD402E02B88134341
:101310002B80E379174A99B21180002B05D1164B27
:10132000013B002B01D0C046FAE70F49134ACB69B5
:10133000A08813400343E268A068CB610B681043A8
:101340000F4A1340C32203430B600E4B5A62A0782E
:101350002188FFF74DFF38BD90100140002D31016D
:1013600038000140FFFFFFFD000301401A020000AA
:101370007D0A00008C100140A02E6300FFFDFFFFDE
:10138000FFFFF0FF00000140014B18687047C046A6
:10139000FC3F0020032330B519400B4A0F2808D822
:1013A000400081408340081CD46E9C432043D0669B
:1013B00009E00F2420404400A140A340081C156F01
:1013C0009D432843106730BD00000140F0B50F6811
:1013D0004C6885B0051C0E1C381C211C00F026FA38
:1013E0000120002959D1381C211C00F0FFF91823D5
:1013F00003900193019B03985C1C211C00F016FADA
:101400000F1E1FD10398211C00F0F0F9244B421E3F
:1014100002909A4216D8031E3F2B02D95B0711D1C6
:101420000137019B30891F49584300F0DFF9C31E83
:101430000C2B07D8241AE31E042B03D87289631ED1
:10144000934206D2019B013B0193062BD2D101208E
:1014500023E040232968023C19432960E02124034A
:10146000C9010C40FF21013A92010A401443FA03DA
:101470001443F022013812010002104003225743A6
:10148000029AC039FA40171C013F20430F4007431E
:1014900000202F612A689A432A6005B0F0BDC0463B
:1014A000FF0100001027000030B5E223C0245B00DC
:1014B000C558A4002542F8D1022412040131224368
:1014C00009061143C15030BD10B5041C80208003B3
:1014D000FFF770FE012223689343236023689B0774
:1014E000FCD410BD08B5E4235B00C258BA3BFF3BF7
:1014F0001340012B04D0022B05D1FFF7D1FD03E0EF
:10150000FFF742FF00E0002008BD000070B5041C9A
:101510000D1C161CFFF7D8FFE4230F225B00E158D7
:10152000201C91432943E150FFF7DCFF311C051CCF
:1015300000F05CF980210B4BC900081A984200D9D1
:10154000181CE268084B802113408022E360E368A6
:10155000D20113430343C900091AE360281C00F0B9
:1015600045F970BDFF030000003CFFFF30B5027E6F
:10157000031C0320012A15D12021F0251A682D050E
:10158000D1611A681C7B1168240607482C4008406A
:10159000211C014300201160196911615B695361CD
:1015A000024BD36130BDC046FFFFFFF04000280072
:1015B00038B501681D4B8C68CB181D4A9D0A224026
:1015C0006D038A609A052B1CD20E8C68120213439D
:1015D00023438B60037E012B27D82024CC61C17963
:1015E0000368426821420AD1510F490792040A4315
:1015F0009A618468620F5107A2040A4301E09A616C
:101600008268DA60027E012A09D1041CFFF7AEFF6E
:10161000802223681205DA612368064A04E08022EA
:101620001201DA610368044ADA6138BD00F0FBAFE9
:10163000FF00FFFFC00020064006A00070B5026852
:10164000031CD1690320D26909055FD40138520710
:101650005CD408211A682024D16180211A68890588
:101660009569D8790D4225D1A043D8719069284E4B
:101670003040850C5868400F400728435860D568B3
:101680002940490F4D01D97AA1432943D97298685D
:10169000214207D0D1680E40B10C460F76070E43A9
:1016A0009E6021E0D168400FC900C9084007084387
:1016B000986019E02043D8719069C000C508586847
:1016C000400F400728435860D068C000C50898689C
:1016D000400F400728439860D0680140490F4801F7
:1016E000D97AA1430143D97211680901090F19730D
:1016F0001169196151695961D169D2691207D20F13
:10170000490701D5002AA4D10020187670BDC04633
:101710000000FC1F8023DB03994203D003681943B8
:10172000016002E0836919438161704708B5064B87
:10173000984201D1042004E0044B984203D1802058
:101740008002FFF737FD08BD000004480040044850
:1017500038B5041C0D1CFFF7E9FF80235B00E36034
:101760002168034B0B40A9031943216038BDC046D3
:10177000FF3FFFFF0B6843614B799B06DB0F1B05A7
:1017800043600B791B071B0F43624B791B071B0F31
:1017900003624B79DB06DB0F83610B791B09C362A4
:1017A0007047000010B50B290CD8074B5C56074B4F
:1017B0004900C95A002905D0A240A83003688B43CC
:1017C0001A43026010BDC046DA300010E630001047
:1017D00010B5032449008A408C40111C436FA34379
:1017E0004367436F1943416710BD000010B5EFF325
:1017F000108272B60424044B5C6318625962986AC2
:1018000082F3108810BDC0460000034010B5EFF30E
:10181000108272B60024044B5C6318625962986AA5
:1018200082F3108810BDC0460000034010B5EFF3EE
:10183000108272B60424044B5C6318625962D96A40
:10184000986A82F3108810BD0000034070B50D1C2B
:10185000041C161C00F0D2F96B79002B0CD1002E61
:101860000AD02B79201C29680222002B02D000F01C
:101870000FF901E000F0BEF8084B6363A223DB0020
:10188000A3636B79002B03D10B22AB791343E36382
:1018900001235B42E3642B89236470BD02013F078F
:1018A000FF2330B595012B40C025046CAC43234386
:1018B0000364031CFC33DC68E023DB041C420CD112
:1018C0007F24836BA343DBB2802BF9D08024C36CCD
:1018D000A4012343C364203200E06032920011501F
:1018E00030BD031CE022FC331969D204114201D13E
:1018F000406D00E0186A80B27047FE23026C5B0204
:101900000B4013430364C36B4907090C1943C163BC
:1019100070470000F8B50E1C041C171C00F06EF98F
:10192000337A1025002B00D01D1C002F0AD03379EC
:10193000201C31682A1C002B02D000F0A9F801E01D
:1019400000F058F8F379134A013B5B0013438122FE
:101950006D0801352D021D43E56373795200013B8B
:101960001B0613436363B379002B04D0626B013B06
:101970001B04134304E07279616B531E1B040B4379
:101980006363A023DB00A36301235B42E3647389E9
:101990002364F8BD01000300031CFC33DA68E02374
:1019A000DB041A420BD17F22836B9343DBB2802B83
:1019B000F9D080239B01C3640430C16702E0C023D7
:1019C0005B00C1507047031CE022FC331969D2044C
:1019D000114201D1406D00E0186A80B2704708B52D
:1019E0000820FFF7E7FB0820FFF7F8FB0028FAD1F3
:1019F00008BD0000F0B5012487B0632940D9002A52
:101A00003ED00E1C0492051CFFF7BEFC6421FFF7BC
:101A1000EDFE802703906421301CFFF7E7FEFF00F6
:101A200001943C1C049B43430593039B9E02164B6D
:101A30000293301C0599FFF7D9FE8022830AD20059
:101A4000934207D8029A8005800D904202D2271C4B
:101A500002900193039B013CF61A002CE9D18022ED
:101A60007B1E120213432B61049B6969074A013BE9
:101A70009B020A401A43019B013B1B041A436A6103
:101A8000201C07B0F0BDC046FF030000EF8000FC43
:101A9000F0B585B00192071C0391FFF775FC019B1F
:101AA000039A061C534301240093984245DD191CF8
:101AB000FFF7ACFE009B051CA3400293204B9D4208
:101AC0000AD9301C0299FFF7A1FE009A029B9446A6
:101AD0000134051C6344F0E701996B1C6143301C21
:101AE00059430093FFF782FE211C039B6943181A98
:101AF000C217831853400293019B301C5943FFF7D0
:101B000075FE039B181AC317C0185840029B8342E6
:101B100000DA009D8023DB005D1B8023DB011D4379
:101B20003D61019B7969074A013B9B020A40013CE8
:101B3000134324041C437C610024201C05B0F0BD29
:101B4000FE030000EF8000FCFC3030B5C568064C99
:101B500012062C40C460C568044C1B022C40214373
:101B60000A431343C36030BDFFFFFFF8C0C0FFF856
:101B7000FC3030B50569084C12062C40046104693C
:101B8000064D1B022540802464052C4321430A4353
:101B90001343036130BDC046FFFFFFF8C0C0FFEF35
:101BA00010B507248C408A408369A34313438361A3
:101BB00010BD10B507248C408A40FC300369A34354
:101BC0001343036110BD000008B50A4B984202D1CF
:101BD000FFF705FF0CE0084B984209D18020C002B6
:101BE000FFF7E8FA8020C002FFF7F8FA0028F9D1E1
:101BF00008BDC0460800004808400048902310B5C2
:101C0000DB05041E9C4202D00C4B984202D1FFF728
:101C1000E6FE08E00A4B984202D00A4B984202D1F5
:101C20000948FFF7D1FF0323E360E368DB07FCD536
:101C30000F22236C9343236410BDC046000200486A
:101C4000004000480042004808400048704708B57E
:101C500043685B68984708BDF8B54468A31CDE7FFD
:101C60000423022E35D10323002932D0002A30D09C
:101C70008568331C2F7E002F2BD1013B2B7604343B
:101C8000E37F002B04D0802403682402FC33DC6152
:101C9000041C0D1C8E1863680433DB7FB5420DD025
:101CA000002B05D02268131CFC339B69DB04FAD49B
:101CB00029782068FFF770FE0135ECE7002B05D08E
:101CC0002268131CFC339B691B05FAD50023A2680C
:101CD0001376181CF8BDF8B54468E31CDE7F0423B6
:101CE000022E34D10323002931D0002A2FD0856859
:101CF000331C6F7E002F2AD1013B6B760534E37FC6
:101D0000002B04D080240368E401FC33DC61051C53
:101D10000C1C8E18B44217D06B680533DA7F2B6821
:101D2000002A05D01A1CFC3292691207FAD405E089
:101D3000C022996C12021142FAD0DA642868FFF7C7
:101D400042FE20700134E5E70023AA685376181C90
:101D5000F8BD000070B51F4E1F4C301C03211F4AF8
:101D6000FFF7E2F9201C1E490122FFF7D3FD0722ED
:101D7000E369201C9343E361A36A30219343A36288
:101D8000236B022593432363033A0123FFF7DCFE11
:101D9000201C202104220F23FFF7EAFE0F22236CD0
:101DA000301C93432B432364291C0E4AFFF7BCF9D4
:101DB0002A1C201C1021FFF7F3FE201C10210122F9
:101DC000FFF7F7FE8022FC342369D205134300207D
:101DD000236170BD0001044000020048283100105A
:101DE000443100103C3100104369428C5A63002298
:101DF000DA630369C2689B681A61704770B501268F
:101E0000041C006900F01AFA311C2369051C9A6849
:101E1000237E60699940D160E169FFF7ABFC201C2B
:101E2000FFF7E2FFA31DDB7F002B0AD0A319DA7FA7
:101E300060690021FFF7B6FC6369A4331A68324376
:101E40001A6002226369E11D1A61013ACA770534FA
:101E5000E17F002900D0DA60281C70BD08B5C21DE2
:101E6000031C0020D27F824206D19A1CD27F82427C
:101E700002D1181CFFF7C2FF08BD08B54368DB6834
:101E8000984708BDF7B544680423257E022D4BD141
:101E90000323002948D0002A46D086682B1CB77E31
:101EA000002F41D1013BB376A47E0368002C05D0FE
:101EB00080251C1C2D02FC34E56104E08025DC6CCF
:101EC000ED002C43DC64041C02200D1C0F1C9866E2
:101ED0008B180193019B9D421AD0737E327E012B99
:101EE00001D1297800E039882068FFF7D9FC6368C0
:101EF0009A7E2368002A05D01A1CFC329269D2040B
:101F0000FAD402E09A6C5205FCD501350237E1E7BC
:101F100063689B7E002B05D02268131CFC339B69F1
:101F20001B05FAD50023B376181CFEBDF7B5436830
:101F30005C7E0423022C53D10323002950D0002AB5
:101F40004ED08668231CF57E002D49D1041C013B30
:101F5000171C327EF37603339A430D1C0068214927
:101F6000FFF79EFC6368DA7E2368002A04D0802293
:101F7000FC33D201DA6104E0C021DA6C09020A43C1
:101F8000DA642068FFF7ADFC2068FFF7AAFCEB19C4
:101F90002F1C0193019B9F4220D06368DA7E236847
:101FA000002A05D01A1CFC3292691207FAD407E005
:101FB000C0219A6C09020A42FAD0DA6C0A43DA6448
:101FC000737E2068012B03D1FFF78BFC387002E091
:101FD000FFF787FC288001370235DBE70023F37623
:101FE000181CFEBDFFFF000038B508250368996C7A
:101FF000294208D042685469002C04D0DA6C2A4384
:10200000DA64A0470AE01024214207D0426811692F
:10201000002903D0DA6C2243DA64884738BD902364
:102020005022DB058000C018C3699343403A134334
:10203000C361C369093A93431943C1617047000002
:10204000F8B5002590240127434B444E9B68301C73
:102050009D760221DD76424AFFF766F8301C0321A7
:10206000404AE405FFF760F8301C01213E4AFFF7C3
:102070005BF8201C3D490122FFF7E8FB636B281C3D
:102080003B436363626B3A4B05211340E022D20469
:1020900013436363FC23626B9B0313436363FFF788
:1020A000BEFF291C0320FFF7BAFF291C0420FFF7FD
:1020B000B6FF391C0520FFF7B2FF381C0621FFF7D9
:1020C000AEFF02200621FFF7AAFF8022636A5200BA
:1020D00013436362201C3B1C1021FC3AFFF734FDC4
:1020E000201C291C0F230422FFF742FD201C2A1C60
:1020F0001021FFF755FD626A1E4B201C1340802201
:102100001201134363620421FFF7F7FBC2221A4B4B
:1021100092009958194B09200B40C02109020B432A
:1021200015498B5090210901FFF734F98023124A99
:102130009B0013600F22236C301C93431F43291C08
:1021400027640F4AFEF7F0FF301C291C2A1CFFF7FA
:102150003FFB281CF8BDC046D0050020000204400B
:10216000A4310010AC310010683100105C31001057
:10217000FFFFFFF0FFF3FFFF00E100E0FF00FFFFC4
:102180009C31001008B50248FFF72EFF08BDC0467D
:10219000D0050020F7B5041C8078E67841B2B30181
:1021A0000193002919DB0325FF260540ED00AE4011
:1021B000C027B4461F4B8A089200D218BF00D359DB
:1021C0001E1C63469E43B446FF26019B3340AB4032
:1021D0001D1C63461D43D55115E00F22C3B21A40A2
:1021E000083A154D92089200521903252B40AB4036
:1021F000FC352E1C9E40D769B743019E2E409E4061
:102200003D1C3543D561238809021943C0B289B208
:10221000FFF7C0F82379002B0AD0A27853B2002B25
:1022200006DB1F23134001229A40131C014A13604E
:102230000020FEBD00E100E000ED00E010B5437BB2
:10224000002B0AD1041C017B8068FFF781FA8022F1
:10225000A3685200DA6001236373002010BD10B53B
:10226000437A002B07D1041C017A22684068FFF7EB
:102270004DF901236372002010BD10B5041C017BD1
:10228000021D0068FEF750FF2068217B627BFFF78C
:102290009FFA002010BD00000121024A936E8B437B
:1022A00093667047000001400378002B01D1013391
:1022B000037000207047000030B585B06A46054BBA
:1022C000684632CB32C21B681360FEF7E7FF05B0E9
:1022D00030BDC0465832001010B5041C0068FFF72E
:1022E00067F9E379002B0DD07020236861791A68B3
:1022F0000901936883430B4380219360136889022B
:102300000B431360237A002B0CD0072123681B6832
:102310009A688A43A1790A4380219A601A6849021F
:102320000A431A6010BD08B50068FFF787F908BDB9
:10233000031CF7B59033041C00681F68FFF78FFF7C
:10234000061E01D001269BE06068A168FFF73EF8F9
:102350000028F7D1402163681A680A431A601A6896
:102360003F390A431A601A687F318A431A60221C77
:10237000A73201921278002A04D0DA6880310A4329
:10238000DA6013E0231C98331B6819791868231C42
:102390009C331A68FEF7C8FE221C07206168A03231
:1023A000CB681278834302401343CB60231C07227F
:1023B000702560688C331968836893430A781343E7
:1023C000836083684A78AB43120113438360836858
:1023D0008D782C4A2D0213402B4383608368C97883
:1023E000294A090313400B438360231CA433197843
:1023F0004B1E9941231CA3331B784900002B01D0AD
:1024000004231943231CA5331B78002B01D0082378
:102410001943FFF77FF9231CA6331B78002B04D048
:1024200080216068C903FFF775F90025231CA233DA
:102430001B789D4211D2221CAB00E318DB68A1324D
:10244000009311782368009A58681279FFF72CF8E6
:102450000098FFF741FF0135E8E740216268136803
:102460008B43136013683F398B431360019B1B78C8
:10247000002B05D19434397938682268FEF754FE70
:10248000301CFEBDFFF8FFFFFF8FFFFF08B531488E
:10249000FFF70AFF00285CD12F48FFF7D8FB002880
:1024A00057D12E48FFF744FF002852D12C48FFF7A0
:1024B00071FE00284DD12B48FFF7DFFE002848D1E0
:1024C0002948FFF7DAFE002843D12848FFF7D5FE58
:1024D00000283ED12648FFF7D0FE002839D12548F4
:1024E000FFF7BCFC002834D12348FFF7C6FE0028C4
:1024F0002FD12248FFF74EFE00282AD12048FFF7AF
:10250000BCFE002825D11F48FFF7B7FE002820D1C8
:102510001D48FFF7B2FE00281BD11C48FFF73AFE0A
:10252000002816D11A48FFF735FE002811D11948A6
:10253000FFF7A3FC00280CD11748FFF72BFE00285B
:1025400007D11648FFF78AFC002802D11448FFF78C
:1025500021FE08BD9406002050050020B432001072
:10256000B4310010D8310010E8310010F8310010FB
:10257000083200105C05002018320010BA3100103B
:10258000283200103832001048320010C0310010DC
:10259000C6310010D0050020CC3100108405002089
:1025A000D231001008B5011C0822024800F08CFD51
:1025B00008BDC04651070020094B10B51A68197BA9
:1025C00080235B028B405360064BD8680468FFF79A
:1025D000AAFE201C1030FFF7E5FF00F0F5FA10BD51
:1025E00038320010B432001008B5011C082202482D
:1025F00000F06AFD08BDC04659070020064B10B523
:1026000018690468FFF78FFE201C1030FFF7ECFFFD
:1026100000F03AFB10BDC046B432001008B5011CF2
:102620000822024800F050FD08BDC04661070020A6
:10263000064B10B558690468FFF775FE201C103072
:10264000FFF7ECFF00F046FB10BDC046B4320010AF
:10265000024B1878C007C00FC0B270475107002066
:10266000024B18788007C00F7047C0465107002002
:10267000024B18784007C00F7047C0465107002032
:10268000024B18780007C00F7047C0465107002062
:10269000024B1878C006C00F7047C0465107002093
:1026A000024B18788006C00F7047C04651070020C3
:1026B000024B18784006C00F7047C04651070020F3
:1026C000014B1878C009704751070020014B58781A
:1026D0007047C04651070020014B98787047C046AC
:1026E00051070020014BD8787047C04651070020A1
:1026F000014B18797047C04651070020014B5879AB
:102700007047C04651070020014B98797047C0467A
:1027100051070020014BD8797047C046510700206F
:10272000014B18787047C04659070020014B587874
:102730007047C04659070020014B98787047C04643
:1027400059070020014BD8787047C0465907002030
:10275000014B18797047C04659070020014B587942
:102760007047C04659070020014B98797047C04612
:1027700059070020014BD8797047C04659070020FF
:10278000014B18787047C04661070020014B58780C
:102790007047C04661070020014B98787047C046DB
:1027A00061070020014BD8787047C04661070020C0
:1027B000014B18797047C04661070020014B5879DA
:1027C0007047C04661070020014B98797047C046AA
:1027D00061070020014BD8797047C046610700208F
:1027E0001E4A01211368127B5B6AD3401A1C1C4BE2
:1027F0000A408A4201D1197826E01A480268007B13
:10280000526AC2400A4202D01A7802211CE01648DD
:102810000268007B526AC2400A4202D01A78032141
:1028200012E012480268007B526AC2400A4202D09B
:102830001A78042108E00E480268007B526AC24000
:102840000A4203D005211A780A4302E007211A78C8
:102850008A431A7018784007400F7047D83100102B
:1028600069070020E8310010F8310010083200102C
:10287000183200100020014B587070476907002083
:1028800038B5174C174D211C2B22281CFFF74EFB87
:10289000154B1A68197B154B8B4053602378012B1D
:1028A00018D11348211C042200F00EFC6378052B7C
:1028B00003D1211D0F4827220AE0092B03D1211D36
:1028C0000D48202204E0112B04D11B220B48211DAE
:1028D00000F0FAFB281C0A492B22FFF7D3FA38BD77
:1028E000C0060020D0050020383200100100010091
:1028F000AD0700206B070020B107002092070020E1
:1029000095060020014B18787047C046AD0700209F
:10291000024B5878C007C00FC0B27047AD07002007
:10292000024B58788007C00F7047C046AD070020A3
:10293000024B58784007C00F7047C046AD070020D3
:10294000024B58780007C00F7047C046AD07002003
:10295000024B5878C006C00F7047C046AD07002034
:10296000024B58788006C00F7047C046AD07002064
:10297000024B58784006C00F7047C046AD07002094
:10298000014B5878C0097047AD070020014B98787B
:102990007047C046AD070020014BD8787047C0464D
:1029A000AD070020024B1878C007C00FC0B27047B7
:1029B0006B070020024B18788007C00F7047C04695
:1029C0006B070020024B18784007C00F7047C046C5
:1029D0006B070020024B18780007C00F7047C046F5
:1029E0006B070020024B1878C006C00F7047C04626
:1029F0006B070020024B18788006C00F7047C04656
:102A00006B070020014B1878800970476B07002086
:102A1000014B58787047C0466B070020024B9878EE
:102A2000C007C00FC0B270476B070020024B9878F8
:102A30008007C00F7047C0466B070020014BD87855
:102A40007047C0466B070020014B18797047C0469D
:102A50006B0700200048704770070020014B187D6D
:102A60007047C0466B070020014B587D7047C04639
:102A70006B0700200048704781070020004870471E
:102A80008E070020024B1878C007C00FC0B27047F5
:102A9000B1070020014B187840087047B1070020AB
:102AA000014B58787047C046B1070020014B987819
:102AB0007047C046B107002000487047B4070020A7
:102AC000014B587B7047C046B1070020014B987BF3
:102AD0007047C046B107002000487047C00700207B
:102AE000014B587E7047C046B1070020014B987ECD
:102AF0007047C046B1070020014BD87E7047C046E2
:102B0000B107002000487047CD070020024B18781D
:102B1000C007C00FC0B2704792070020024B187860
:102B20008007C00F7047C04692070020014B1878FD
:102B30008008704792070020014B58787047C046C4
:102B400092070020014B98787047C04692070020FA
:102B5000014BD8787047C046920700200048704764
:102B600096070020014BD87C7047C0469207002092
:102B7000014B187D7047C04692070020014B587DDD
:102B80007047C04692070020014B987D7047C046B1
:102B90009207002000487047A907002008B50649A1
:102BA00002220648FFF797F8054B1A68197B054B78
:102BB0008B40536008BDC0464F07002050050020E1
:102BC000383200100100010038B5FFF741FD012542
:102BD0002C4C2840A378AB431843A070FFF740FD6E
:102BE000022228404300A07890431843A070FFF7CA
:102BF0003FFD042228408300A07890431843A07032
:102C0000FFF73EFD08222840C300A07890431843F8
:102C1000A070FFF73DFD102228400301A0789043EB
:102C20001843A070FFF73CFD202228404301A07804
:102C300090431843A070FFF73BFD40230540A801D7
:102C4000A5789D430543A570FFF73AFD7F22C30198
:102C5000A07810401843A070FFF738FDE070FFF730
:102C60003BFD2071FFF73EFD6071FFF741FDA07154
:102C7000FFF744FDE071FFF747FD2072FFF74AFDC3
:102C8000607238BD1808002010B5FFF737FD104CF2
:102C9000E071FFF739FD2072FFF73CFD6072FFF72E
:102CA0003FFDA072FFF742FDE072FFF745FD207384
:102CB000FFF748FD6073FFF74BFDA073FFF74EFD74
:102CC000E073FFF751FD2074FFF754FD607410BDF1
:102CD0001808002010B5FFF741FD104CE073FFF716
:102CE00043FD2074FFF746FD6074FFF749FDA074B3
:102CF000FFF74CFDE074FFF74FFD2075FFF752FD25
:102D00006075FFF755FDA075FFF758FDE075FFF7FB
:102D10005BFD2076FFF75EFD607610BD1808002091
:102D2000212310B5054C23706370A3766377FFF7FA
:102D300057FDE076FFF79EFD207710BD18080020B4
:102D400038B5FFF7DFFD284C0125A077FFF7E0FD40
:102D5000E37F2840AB431843E077FFF7E1FD022211
:102D600028404300E07F90431843E077FFF7E0FD01
:102D7000042228408300E07F90431843E077FFF768
:102D8000DFFD08222840C300E07F90431843E0772E
:102D9000FFF7DEFD102228400301E07F9043184337
:102DA000E077FFF7DDFD202228404301E07F9043DC
:102DB0001843E077FFF7DCFD40230540A801E57FDD
:102DC0009D430543E577FFF7DBFD7F22C301E07FED
:102DD00010401843E077FFF7D9FD631CD877FFF761
:102DE000DBFD0234E07738BD18080020F8B5FFF7A6
:102DF000D9FD0125384C284023780227AB431843DE
:102E00002070FFF7D7FD2840430020780426B84300
:102E100018432070FFF7D6FD284083002078B04388
:102E200018432070FFF7D6FD08222840C300207801
:102E3000904318432070FFF7D5FD1022284003016E
:102E40002078904318432070FFF7D4FD20222840BB
:102E500043012078904318432070FFF7D3FD3F22B1
:102E600083012078104018432070FFF7D1FD607077
:102E7000FFF7D4FDA3782840AB431843A070FFF7B9
:102E8000D5FD05406800A578BD430543A570FFF753
:102E9000D5FDE070FFF7D8FD2071FFF7DBFD0F22B5
:102EA000011C601D00F010F9FFF7D8FD2075FFF739
:102EB000DBFD6075FFF7DEFD011C201C0D221630C6
:102EC00000F002F9FFF7DAFD011C201C321C233050
:102ED00000F0FAF8F8BDC046F107002038B5FFF75A
:102EE000D1FD01251D4C28402378AB4318432070A9
:102EF000FFF7D0FD43002078284018432070FFF7EB
:102F0000CFFD6070FFF7D2FDA070FFF7D5FD09354A
:102F10002A1C011CE01C00F0D7F8FFF7D1FD6073FC
:102F2000FFF7D4FDA073FFF7D7FD011C201C2A1C5E
:102F30000F3000F0C9F8FFF7D3FD6076FFF7D6FD3C
:102F4000A076FFF7D9FDE076FFF7DCFD011C201C21
:102F500004221C3000F0B8F838BDC046D10700206C
:102F600038B5FFF7D3FD01251D4C28402378AB432E
:102F700018432070FFF7D2FD022305406800257832
:102F80009D4305432570FFF7D1FD03228300207880
:102F9000104018432070FFF7CFFD6070FFF7D2FD9F
:102FA000A070FFF7D5FDE070FFF7D8FD0F22011CE0
:102FB000201D00F089F8FFF7D5FDE074FFF7D8FD7C
:102FC0002075FFF7DBFD6075FFF7DEFDA075FFF7ED
:102FD000E1FD011C201C0422173000F075F838BDFB
:102FE0003A08002038B5041CFFF7AAFE144D22222F
:102FF000201C291C00F068F80523EA7F1340052BEC
:1030000006D1FFF7F3FE201C0E492230272214E0E0
:1030100009231340092B06D1FFF760FF201C0A4942
:103020002230202209E011231340112B07D1FFF792
:1030300097FF201C1B220549223000F045F838BDBF
:1030400018080020F1070020D10700203A080020CE
:1030500010B5FFF765FE054C201CFFF7C3FF211CD0
:1030600064220348FEF7F8FD10BDC046EB060020C1
:103070005005002008B5FFF709FAFEE70E4B70B5C2
:1030800000251E1C0D4CE41AA410A54204D0AB0070
:10309000F35898470135F8E7FEF7D8FD084B0025AF
:1030A0001E1C084CE41AA410A54204D0AB00F3582F
:1030B00098470135F8E770BD6806002068060020D3
:1030C0006806002068060020002310B5934203D054
:1030D000CC5CC4540133F9E710BD000002020000CB
:1030E0000000080A0C0C030003000C000C00000098
:1030F0000000000000000003000C00300030000061
:1031000044310010551D00100000000000000000B8
:10311000000000000000000000000000303100103E
:103120000002020404000000000000000100000092
:1031300000010440020000003C3100109C0000002F
:1031400001000000802500000008080110000000B8
:10315000000204409C31001000000000000000004C
:10316000000100000000000000000000010000005D
:103170005C310010503100109031001041200010DF
:103180000000000081280010020204040000050075
:1031900000020440683100100001000098000000A7
:1031A000010000000000000001000000000000001D
:1031B0000100000002000002010002000303010000
:1031C00001000103010001000203010001001503D9
:1031D000010000000A020100000104401800000084
:1031E0000000000000000000000104401800000082
:1031F000000000000500000000010440180000006D
:1032000000000000040000000004044080000000F2
:10321000010000000300000000020440180000004C
:1032200000000000050000000004044080000000D1
:1032300001000000000000000004044080000000C5
:1032400001000000010000000004044080000000B4
:103250000100000002000000000001000000300337
:10326000000001000000000000040440090000000C
:10327000000000000000000008060020130000000D
:1032800001000000280600201200020001000000DA
:10329000480600201100010001000000006CDC0263
:1032A00020A10700401F01000300000000040440AB
:1032B00008000000FC050020000304509C320010B0
:1032C00078320010903200108432001000000000AC
:1032D00000000000000000000000000000000000EE
:1032E00000000000000000000000000000000000DE
:1032F00000000000000000000000000000000000CE
:1033000000000000000000000000000000000000BD
:1033100000000000000000000000000000000000AD
:10332000000000000000000000000000000000009D
:10333000000000000000000000000000000000008D
:10334000A8320010683200105C330010AC3200105C
:10335000703200100201030000010000A400000010
:043360000100000068
:103364002C4800470000000000000000000000009E
:103374000000000000000000000000000000000049
:1033840025480047000000000000000023480047D3
:103394002348004723480047234800472348004761
:1033A4002348004723480047234800472348004751
:1033B4002348004723480047234800472348004741
:1033C4002348004723480047234800472348004731
:1033D4002348004723480047234800472348004721
:1033E4002348004723480047234800472348004711
:1033F4002348004723480047234800472348004701
:1034040023480047234800472348004723480047F0
:10341400234800479D1000109D1000109D100010BF
:103424009D10001051300010FD25001031260010B1
:10343400B92500109D1000109D1000109D10001063
:103444009D1000109D100010852100109D2B001070
:103454009D1000109D1000109D1000109D10001074
:103464009D1000109D1000109D1000109D10001064
:103474009D1000109D1000109D1000109D10001054
:103484009D1000109D1000109D1000109D10001044
:103494009D1000109D1000109D1000109D10001034
:0434A4009D10001067
:1034A80000020048003100107006002080F0FA0287
:1034B80000D054850A00000050000000DC05002000
:1034C8000002044801000000AC05002000001AB703
:1034D80001010000581B000000D054850A000000BC
:1034E80050000000EC0500200042044801000000E4
:1034F8008C06002000003F1A0101000000000000B7
:103508000A000000000000000000000000000000A9
:1035180000000000000000000000000000010000A2
:103528000000004870310010B405002000D8B8052C
:1035380001000000000004480000000000D8B805A1
:10354800020000000040044800000000006CDC029B
:10355800000004500100000060120450AA0100801D
:10356800AA01002008000000000000000000000080
:10357800000000000000000040120450CC0200804F
:10358800CC0200200800000000000000000000003D
:10359800000000000000000020120450AA02008071
:1035A800AA0200200800000000000000000000003F
:0835B80000000000000000000B
:040000051000101DBA
:00000001FF
